:020000021000EC
:10C000000000042001F001005DF0010021BE0200EB
:10C0100061F0010063F0010065F001000000000024
:10C02000000000000000000000000000F91D0200F8
:10C0300069F0010000000000191E020079A1030050
:10C04000217203006FF00100917203007D5C030018
:10C050006FF001006FF00100ED5303006FF001007D
:10C060004D640300A56403006FF00100955A0300BE
:10C070006FF00100B94F03006FF001006FF0010095
:10C080002970030011A803006FF001006FF0010098
:10C090006FF001006FF00100CDEA02006FF00100C7
:10C0A0006FF001006FF001006FF00100FD6403000C
:10C0B0006FF001006FF001000000000000000000C0
:10C0C0006FF001006FF001006FF00100FD5C0300F4
:10C0D000455B03006FF001006FF00100C5810300B4
:10C0E0006FF001006FF001006FF001000000000030
:10C0F000000000006FF0010000000000F55B03008D
:10C10000000000000000000000000000000000002F
:10C11000000000000000000000000000000000001F
:10C12000000000000000000000000000000000000F
:10C1300000000000000000000000000000000000FF
:10C1400000000000000000000000000000000000EF
:10C1500000000000000000000000000000000000DF
:10C1600000000000000000000000000000000000CF
:10C1700000000000000000000000000000000000BF
:10C1800000000000000000000000000000000000AF
:10C19000000000000000000000000000000000009F
:10C1A000000000000000000000000000000000008F
:10C1B000000000000000000000000000000000007F
:10C1C000000000000000000000000000000000006F
:10C1D000000000000000000000000000000000005F
:10C1E000000000000000000000000000000000004F
:10C1F000000000000000000000000000000000003F
:10E00000EFBEADDE000000000000000000000000D8
:10E010000000000000000000000000000000000000
:10E0200000000000000000000000000000000000F0
:10E0300000000000000000000000000000000000E0
:10E0400000000000000000000000000000000000D0
:10F0000000F036B80F484FF00701884385460E4898
:10F0100080470E48016841F470010160BFF34F8FD3
:10F02000BFF36F8F00F026B809480A490A4A8842A0
:10F0300007D0521A05D0037801300B700131013A24
:10F04000F9D17047000004204583030088ED00E0FB
:10F05000D4540600582700206C270020FEE7FEE766
:10F06000FEE7FEE7FEE7FEE7FEE7FEE7FEE7FEE778
:10F07000FFF7C8BF384939480A1A02D0072291431E
:10F080008D46374937480A1A06D00722914381F343
:10F090000988022282F3148833483449344A00F044
:10F0A0003CF834483449354A00F037F8344835499B
:10F0B000354A00F032F835483549364A00F02DF827
:10F0C00035483649364A00F028F836483649374A36
:10F0D00000F023F836483749374A00F01EF8374821
:10F0E0003749002200F031F836483749002200F055
:10F0F0002CF8364A904726482649884205D00268AF
:10F10000043003B4904703BCF7E700208646EC4682
:10F11000002000212E4A9047FEE7884214D0521A60
:10F1200012D003460B4313430324234206D1036842
:10F1300004300B600431043AF9D170470378013090
:10F140000B700131013AF9D17047884202D0027048
:10F150000130FAE7704700000000042000F80320A7
:10F160000000042000000420441B07006C2700203E
:10F17000482D0020D4F10100D4F10100E452060032
:10F18000441B07006C2700206C2700205C550600FC
:10F190005C5506005C5506005C5506005C55060093
:10F1A0005C5506005C5506005C550600441B0700D4
:10F1B00020210700482D0020482D0020482D002048
:10F1C000304E0120304E0120304E012029F0010048
:04F1D00029F201001F
:10F1D400FEE7000041DF704708B50DF041FC002850
:10F1E400FBD101F04BF9F8E700B50B4A0B490C4889
:10F1F40083B00123CDE9003200234FF4807200F084
:10F20400DFFF012802D103B05DF804FB042003B042
:10F214005DF804EB0BF050B8482D00205C55060057
:10F22400DDF10100F0B5CDB015F016FC002874D165
:10F234003D4D2B6898473D4B9B6C9847FFF7D4FF97
:10F244001BF072FA3A483B4B3B4A3C4900903C481D
:10F2540020F0A6FD012020F0E1FD19F017FA4FF08F
:10F264008052384BD2F8A4100091374A202104A8C8
:10F274001FF0E1FD04A81DF0F7FC19F04FF91AF096
:10F28400BFFA1AF0FDFA00284AD119F063FA2F4B9D
:10F2940093E80300ADF80C10029021F025F807461E
:10F2A4002FF08CFB2A4A2B4906460CA81FF0DBFDE5
:10F2B4000CAB244A2849044618181FF0D4FD0CABA3
:10F2C40004441819254A26491FF0CDFD0CAB04440B
:10F2D4001819244902AA1FF0C6FD0CAB04441819DE
:10F2E40021493A461FF0BFFD0CAB044418191F49CD
:10F2F40032461FF0B8FD0CAB04441D4A1D491819D1
:10F304001FF0B1FD6B6804F123010CA8984719F0B4
:10F31400A5FF0F200AF0D0FFFBE70AF0CDFF87E737
:10F3240013200AF0C9FFB0E7A82700201C280020FA
:10F3340095E30200E1E50200A5E502001590030053
:10F34400FD8F0300B496060064550600E4550600DC
:10F35400949606007055060084550600A89606008B
:10F36400905506009C550600DC550600AC55060079
:10F37400B8550600C455060008B50FF0E3FA30B9D5
:10F3840030BF094B1868BDE8084001F03DB9FFF7EC
:10F3940021FF0028F5D00AF08FFF034B1868BDE861
:10F3A400084001F031B900BF482D002019F0E6B93A
:10F3B40000F108034FF0FF310022C0E90131C0E938
:10F3C40003330260704700BF00230361704700BF2E
:10F3D4004268036810B494680133C1E90124616090
:10F3E40091605DF8044B08610360704730B40D68A8
:10F3F4006B1C10D000F108031C465B681A68AA4213
:10F40400FAD902684B60013299608C6061600861CE
:10F4140030BC0260704704696368F2E7036910B4A2
:10F42400D0E901125C688A608442516008BF5A6066
:10F434001A685DF8044B0021013A01611A601868EA
:10F44400704700BFF8B5074600FB01F050300D4689
:10F45400164602F0BDFB044628B335B300F1500351
:10F464002360C4E90F7502F041FDD4E90F1322684B
:10F4740003FB01F1CB1A1144616000211344A16321
:10F48400FF2184F84410C4E9022384F8451004F1F0
:10F494001000FFF78DFF04F12400FFF789FF02F04D
:10F4A4002FFD84F84C602046F8BD0346D8E700BF22
:10F4B400F8B5064650200D4602F08AFB044620B3F8
:10F4C40000272060C0E90F6702F010FDD4E90F3176
:10F4D4002268A26001FB03F3591A134463600A44CF
:10F4E400FF23A763E26084F8443004F1100084F839
:10F4F4004530FFF75DFF04F12400FFF759FF02F0E8
:10F50400FFFC022384F84C30A5632046F8BD00BFFD
:10F514002DE9F047044684B01F460192884602F064
:10F52400E5FCA26BE36B9A427ED3022F00F0F480D9
:10F53400DFF82C93002304F12406019A002A00F03A
:10F54400078102AD002B00F0E38002F0D9FC01F04A
:10F5540085F902F0CBFC94F84430FF2B04BF002360
:10F5640084F8443094F84530FF2B04BF002384F81A
:10F57400453002F0C5FC01A9284601F013FE00281D
:10F5840040F0EC8002F0B2FCA26BE36B9A426BD0C9
:10F5940002F0B6FC02F0AAFC94F8452055B2002D06
:10F5A40004DC11E06A1ED3B255B26BB1636A304613
:10F5B40053B101F09DFD0028F4D001F023FE6A1E32
:10F5C400D3B255B2002BF1D1FF2384F8453002F0B9
:10F5D40097FC02F08BFC94F8442055B2002D14DD06
:10F5E40004F1100A03E06A1ED3B255B26BB1236969
:10F5F400504653B101F07CFD0028F4D001F002FE26
:10F604006A1ED3B255B2002BF1D1FF2384F84430E3
:10F6140002F076FC01F0D8F902F068FCA26BE16B11
:10F6240091424FF0010388D9226CA56B002A77D050
:10F63400002F40F0FC804146A06820F0D7FAA36870
:10F64400216C62680B449342A36005F101056BD3FE
:10F65400A563636A2268A260002B69D102F050FCA2
:10F66400012004B0BDE8F08704F1100A02F048FC60
:10F674000199504601F0C0FC02F038FC94F8453082
:10F684005DB2002D04DC11E06B1EDAB25DB26AB12A
:10F69400636A304653B101F02BFD0028F4D001F029
:10F6A400B1FD6B1EDAB25DB2002AF1D1FF2384F8FA
:10F6B400453002F025FC02F019FC94F844305DB2A8
:10F6C400002D04DC11E06B1EDAB25DB26AB123696D
:10F6D400504653B101F00CFD0028F4D001F092FD26
:10F6E4006B1EDAB25DB2002AF1D1FF2384F84430F4
:10F6F40002F006FC01F068F900288DD14FF0805328
:10F70400C9F8043040BFBFF34F8FBFF36F8F83E757
:10F71400284601F03BFD18E7226CA56B002A62D154
:10F7240026680135002E77D0A563636A002B95D037
:10F7340004F1240001F0DCFC00288FD0484B4FF08A
:10F7440080525A6040BFBFF34F8FBFF36F8F85E77E
:10F7540002F0D6FB002004B0BDE8F08702F0C6FB3F
:10F7640094F845305DB2002D14DD04F1240603E065
:10F774006B1EDAB25DB26AB1636A304653B101F00E
:10F78400B7FC0028F4D001F03DFD6B1EDAB25DB287
:10F79400002AF1D1FF2384F8453002F0B1FB02F0D6
:10F7A400A5FB94F844305DB2002D14DD04F110067D
:10F7B40003E06B1EDAB25DB26AB12369304653B11D
:10F7C40001F096FC0028F4D001F01CFD6B1EDAB2A7
:10F7D4005DB2002AF1D1FF2384F8443002F090FB9B
:10F7E40001F0F2F8B6E74146E06820F0FFF9226C38
:10F7F400E36821689B1A8B42E360C2F1000202D2E3
:10F8040063681344E360002D8ED10123A363636A0C
:10F81400002B3FF423AF8BE7606801F065FDA5631F
:10F82400626A6660002A83D1002887D116E74146C0
:10F83400E06820F0DBF9226CE36851429B1A2268ED
:10F84400E360934208D3022FDDD00135A563636AD8
:10F85400002B3FF403AF6BE763680B44E360F2E70C
:10F8640000ED00E070B50646502002F0B1F9044600
:10F8740060B3002501232060C0E90F3502F036FB98
:10F88400216CE36B2268A26001FB03F3591A134451
:10F8940063600A44FF23E260A56304F1100084F866
:10F8A400443084F84530FFF783FD04F12400FFF76A
:10F8B4007FFD02F025FBC4E9005584F84C60E56047
:10F8C4002B462A4629462046FFF722FE204670BDD5
:10F8D4002DE9F041044682B09046EFF31187A02051
:10F8E40080F31188A56BE06B85421AD3022B05D0F7
:10F8F400002087F3118802B0BDE8F08194F84550E8
:10F90400226CA66B6DB222BB23680136002B43D058
:10F914006B1CA66330D001356DB284F845500120CC
:10F92400E7E794F84550226CA66B6DB2002AEBD041
:10F93400002B38D1A06820F059F9A368226C134435
:10F944006268A360934206F10106E1D32368A360D1
:10F95400DEE7E06820F04AF9226CE36821689B1A2C
:10F964008B42E360C2F1000202D263681344E36095
:10F97400012E38BF0126CBE7636A002BCFD004F1F8
:10F98400240001F0B5FB0028C9D0B8F1000FC6D09F
:10F994000123C8F80030C2E76068019301F0A4FCB9
:10F9A400019B6360B4E7E068019320F01FF9216CC8
:10F9B400E2682068019B521A8242E260C1F10001B0
:10F9C40003D3022BD4D00136A2E762680A44E26072
:10F9D400F7E700BF10B582B0EFF31184A02383F3DF
:10F9E4001188836BC26B9A420CD990F8452001337D
:10F9F400FF2A836353B20AD001335BB280F84530E7
:10FA0400012000E0002084F3118802B010BD436A95
:10FA1400002BF5D02430019101F06AFB0028EFD0CF
:10FA240001990029ECD001230B60E9E72DE9F043AB
:10FA3400044685B08846019202F058FAA56B002D61
:10FA440040F01E81019B002B00F0CD8002A801F044
:10FA54009DFB2F4604F1240602F052FA00F0FEFE4C
:10FA640002F044FA94F84430FF2B08BF84F8447041
:10FA740094F84530FF2B08BF84F8457002F040FA33
:10FA840001A902A801F08EFB00285BD102F02EFA36
:10FA9400A36B002B40F0AD8004F1240902F030FA8E
:10FAA4000199484601F0A8FA02F020FA94F845308A
:10FAB4005DB2002D04DC11E06B1EDAB25DB26AB1F6
:10FAC400636A484653B101F013FB0028F4D001F0F7
:10FAD40099FB6B1EDAB25DB2002AF1D1FF2384F8E0
:10FAE400453002F00DFA02F001FA94F844305DB2A8
:10FAF400002D14DD04F1100903E06B1EDAB25DB2CF
:10FB04006AB12369484653B101F0F2FA0028F4D0EF
:10FB140001F078FB6B1EDAB25DB2002AF1D1FF234B
:10FB240084F8443002F0ECF900F04EFF002851D183
:10FB3400674B4FF080525A6040BFBFF34F8FBFF303
:10FB44006F8F47E002F0D2F994F845305DB2002D92
:10FB540004DC11E06B1EDAB25DB26AB1636A30464E
:10FB640053B101F0C5FA0028F4D001F04BFB6B1E31
:10FB7400DAB25DB2002AF1D1FF2384F8453002F0F5
:10FB8400BFF902F0B3F994F844305DB2002D14DDEE
:10FB940004F1100903E06B1EDAB25DB26AB12369A5
:10FBA400484653B101F0A4FA0028F4D001F02AFB2E
:10FBB4006B1EDAB25DB2002AF1D1FF2384F844301F
:10FBC40002F09EF900F000FF02F090F9A36B53B12C
:10FBD40002F096F902F08AF9A56B002D50D1019B31
:10FBE400002B7FF439AF02F08BF9002005B0BDE89B
:10FBF400F08302F085F902F079F994F845305DB2AA
:10FC0400002D14DD04F1240903E06B1EDAB25DB2A9
:10FC14006AB1636A484653B101F06AFA0028F4D025
:10FC240001F0F0FA6B1EDAB25DB2002AF1D1FF23C3
:10FC340084F8453002F064F902F058F994F844303D
:10FC44005DB2002D14DD04F1100903E06B1EDAB27D
:10FC54005DB26AB12369484653B101F049FA0028FC
:10FC6400F4D001F0CFFA6B1EDAB25DB2002AF1D102
:10FC7400FF2384F8443002F043F900F0A5FEA9E71D
:10FC8400226C52B1E168636811449942E16024BF77
:10FC94002168E16040461FF0A9FF013DA563236987
:10FCA4002BB902F02DF9012005B0BDE8F08304F171
:10FCB400100001F01DFA0028F3D0054B4FF08052DC
:10FCC4005A6040BFBFF34F8FBFF36F8FE9E700BFA8
:10FCD40000ED00E02DE9F041044684B000F1240673
:10FCE400019102F003F9A36B00273D46002B40F07D
:10FCF400DE80019B002B00F03681002D00F0CA80CD
:10FD040002F0FEF800F0AAFD02F0F0F894F8443096
:10FD1400FF2B04BF002384F8443094F84530FF2BB4
:10FD240004BF002384F8453002F0EAF801A902A8D0
:10FD340001F038FA00285FD102F0D8F8A36B002B49
:10FD440040F0C38002F0DCF82368002B00F0168139
:10FD540004F124080199404601F04EF902F0C6F876
:10FD640094F845305DB2002D04DC11E06B1EDAB26C
:10FD74005DB26AB1636A404653B101F0B9F9002833
:10FD8400F4D001F03FFA6B1EDAB25DB2002AF1D171
:10FD9400FF2384F8453002F0B3F802F0A7F894F892
:10FDA40044305DB2002D14DD04F1100803E06B1E35
:10FDB400DAB25DB26AB12369404653B101F098F9F1
:10FDC4000028F4D001F01EFA6B1EDAB25DB2002AEC
:10FDD400F1D1FF2384F8443002F092F800F0F4FDEE
:10FDE40000285DD1744B4FF080525A6040BFBFF37E
:10FDF4004F8FBFF36F8F53E002F078F894F84530DB
:10FE04005DB2002D04DC11E06B1EDAB25DB26AB1A2
:10FE1400636A304653B101F06BF90028F4D001F065
:10FE2400F1F96B1EDAB25DB2002AF1D1FF2384F836
:10FE3400453002F065F802F059F894F844305DB2A8
:10FE4400002D14DD04F1100803E06B1EDAB25DB27C
:10FE54006AB12369404653B101F04AF90028F4D04D
:10FE640001F0D0F96B1EDAB25DB2002AF1D1FF23A2
:10FE740084F8443002F044F800F0A6FD02F036F8AD
:10FE8400A36B5BB902F03CF8002F65D1002004B0ED
:10FE9400BDE8F08102A801F079F931E702F030F809
:10FEA40002F024F8A36B0125002B3FF422AF226853
:10FEB400013BA363002A7AD02369002B67D102F0A7
:10FEC4001FF8012004B0BDE8F08102F019F802F037
:10FED4000DF894F845305DB2002D14DD04F12408CA
:10FEE40003E06B1EDAB25DB26AB1636A404653B195
:10FEF40001F0FEF80028F4D001F084F96B1EDAB2A8
:10FF04005DB2002AF1D1FF2384F8453001F0F8FFF7
:10FF140001F0ECFF94F844305DB2002D14DD04F1DF
:10FF2400100803E06B1EDAB25DB26AB12369404681
:10FF340053B101F0DDF80028F4D001F063F96B1E31
:10FF4400DAB25DB2002AF1D1FF2384F8443001F023
:10FF5400D7FF00F039FDA3E701F0C8FF616A29B9B2
:10FF6400606801F0EDF901F0CBFF8FE7236B606867
:10FF74001968C1F1070101F0E3F9F4E701F0B6FFF4
:10FF8400606801F071F9074601F0BAFFE0E604F198
:10FF9400100001F0ADF8002891D0074B4FF08052CB
:10FFA4005A6040BFBFF34F8FBFF36F8F87E701F0F5
:10FFB400FDF9606080E700BF00ED00E02DE9F0414D
:10FFC4000446EFF31188A02383F31188856B25B9C8
:10FFD400284688F31188BDE8F08190F844701646ED
:10FFE400026C7FB24AB9013D7B1CA56314D0013772
:0CFFF4007FB284F844700120EBE708465F
:020000022000DC
:10000000E168636811449942E16024BF2168E160BE
:100010001FF0EEFD013D7B1CA563EAD12369002B97
:10002000EBD004F1100001F065F80028E5D0002EB7
:10003000E3D001233360E0E71B4B5A68904218D0AD
:10004000DA6890421ED05A6990421DD0DA69904217
:100050001CD05A6A90421BD0DA6A90421AD05A6B6E
:10006000904219D0DA6B904208BF072202D001F00B
:1000700055BE00229FED0A7B03EBC20383ED007B9C
:1000800001F04CBE0122F5E70222F3E70322F1E77B
:100090000422EFE70522EDE70622EBE7AFF300804D
:1000A0000000000000000000502D0020124B1A68D4
:1000B0007AB19A6862B11A6992B19A6992B11A6A70
:1000C00092B19A6A92B11A6B92B19A6B92B17047DF
:1000D000012203EBC20C43F83210CCF80400704745
:1000E0000222F6E70322F4E70422F2E70522F0E712
:1000F0000622EEE70722ECE7502D002070B50546FA
:100100000E46144601F0F4FE95F84430FF2B04BF70
:10011000002385F8443095F84530FF2B04BF0023B9
:1001200085F8453001F0EEFEAB6B002B43D001F0BB
:10013000DFFE95F845305CB2002C14DD05F1240695
:1001400003E0631EDAB25CB26AB16B6A304653B147
:1001500000F0D0FF0028F4D001F056F8631EDAB2A8
:100160005CB2002AF1D1FF2385F8453001F0CAFEC8
:1001700001F0BEFE95F844305CB2002C14DD05F1B0
:10018000100603E0631EDAB25CB26AB12B69304636
:1001900053B100F0AFFF0028F4D001F035F8631E32
:1001A000DAB25CB2002AF1D1FF2385F84430BDE811
:1001B000704001F0A7BE2246314605F1240000F050
:1001C00059FFB4E72DE9F0479600804630460D46CA
:1001D000994601F0FFFC002800F09C80074658205B
:1001E00001F0F8FC0446002800F0918007633246D5
:1001F0003846A5211FF02EFD276B2B7884F834306C
:10020000043E374427F0070733B36B7884F8353062
:1002100013B3AB7884F83630F3B1EB7884F8373029
:10022000D3B12B7984F83830B3B16B7984F8393095
:1002300093B1AB7984F83A3073B1EB7984F83B3001
:1002400053B12B7A84F83C3033B16B7A84F83D306B
:1002500013B1AB7A84F83E30089D062D28BF0625E1
:100260004FF0000A261DE562A564304684F83FA0E1
:10027000C4F84CA0FFF7AAF8C5F1070504F118006F
:10028000FFF7A4F8C4F850A0A56184F854A0246135
:1002900064624A464146384601F0F2FD099B2060FF
:1002A00003B11C6001F024FE364A374D1368013358
:1002B00013602B68002B37D0344FE06A3B686BB378
:1002C000DFF8F080324A3349136801331360236446
:1002D0000B68834238BF086000EB800008EB8000A9
:1002E0003146FFF777F801F00DFE3B686BB12A68E5
:1002F000E36AD26A9A4208D2274B4FF080525A6082
:1003000040BFBFF34F8FBFF36F8F012004E038462B
:1003100001F004FD4FF0FF30BDE8F0872B68DB6A89
:10032000834298BF2C60CBE72C601368012B04D06C
:10033000E06ADFF88080154FC4E7DFF87880474631
:1003400008F18C0938461437FFF734F8B945F9D16C
:10035000DFF86490114F4846FFF72CF83846FFF756
:1003600029F80F48FFF726F80E48FFF723F80E4844
:10037000FFF720F80D4BE06AC3F800900C4B1F60AC
:10038000024F9FE7B82D0020B82E0020AC2D002092
:100390009C2D0020B02D002000ED00E0042E002058
:1003A000E82D0020D42D0020BC2D0020002E0020A0
:1003B000FC2D00202C2E0020182E002070B50446A5
:1003C000264D01F095FD002C3BD0261D3046FFF751
:1003D00027F8A36A1BB104F11800FFF721F8204A9F
:1003E0001368013313602B68A34221D01D4A206B90
:1003F0001368013B136001F091FC204601F08EFC74
:10040000194B1A68126872B11A68184BD268D26810
:1004100052681A6001F076FD154B1B6813B12B680A
:10042000A34210D070BD114B4FF0FF321A60F1E7BC
:1004300010483146FEF7CEFF0F4A136801331360B0
:10044000E8E72C68C1E70D4B4FF080525A6040BF7F
:10045000BFF34F8FBFF36F8F70BD00BFB82E00206A
:100460009C2D0020B82D0020002E0020982D00206B
:10047000AC2D0020D42D0020D02D002000ED00E078
:1004800070B50446564E01F033FD002C00F08C8010
:10049000251D2846FEF7C4FFA36A1BB104F118000E
:1004A000FEF7BEFF29464F484F4DFEF793FF94F8E5
:1004B0005430012B04BF002384F8543001F022FD96
:1004C0002B68002B61D13368A34200D070BD2B682C
:1004D000002B70D14349454A09681268914274D093
:1004E000434B1B68002B72D1424A43481360026899
:1004F000424B02EB8204A40091001C59002C34D121
:10050000541E04EB840189005D58A100002D62D1C6
:10051000941E04EB840189005D58A100002D5AD17E
:10052000D41E04EB840189005D58A100002D52D136
:10053000141F04EB840189005D58A100002D4AD1ED
:10054000541F04EB840189005958002945D1941F98
:1005500004EB840189005D58A100002D3BD1073ACE
:1005600002EB8204A40091001C59114403EB8104A6
:1005700023466168496861600833994204BF49684D
:100580006160CB683360026070BD01F0B1FC1C4B50
:100590001A68126852B11A681A4BD268D268526847
:1005A0001A6001F0AFFC8EE7346871E7154B4FF02D
:1005B000FF321A60F5E7144B4FF080525A6040BF8B
:1005C000BFF34F8FBFF36F8F70BD336070BD094BAA
:1005D00001221A6070BD2246C7E72246A100C4E787
:1005E000B82E0020BC2D0020AC2D0020B82D0020FE
:1005F000902D0020A42D0020B02D00202C2E0020B6
:10060000002E0020982D002000ED00E080B170B594
:100610001B4D2B688342044609D001F069FC194B3D
:1006200062699A4205D0BDE8704001F06BBC70BDB4
:100630007047A36A144A9342F5D0002BF3D1261DCC
:100640003046FEF7EDFE114AE36A116810488B420E
:1006500088BF136003EB830300EB83003146FEF792
:10066000B9FE2B68E26ADB6A9A42DCD3094B4FF091
:1006700080525A6040BFBFF34F8FBFF36F8FD2E7F6
:10068000B82E0020BC2D0020E82D0020B02D002029
:100690002C2E002000ED00E02DE9F8434FF400700F
:1006A00001F098FA00286AD00546582001F092FA25
:1006B0000446002865D04FF40072A5210563284642
:1006C0001FF0C8FA0025534B266B6363271DC4E94E
:1006D000125584F8385084F83F50E5623846FEF7EA
:1006E00075FE06F5FE7604F11800FEF76FFE26F0A3
:1006F000070607232A4625654749A36184F8545015
:1007000024616462304601F0BBFB444B20601C60F6
:1007100001F0EEFB424A434D1368013313602B682E
:10072000002B39D0404EE06A33687BB3DFF8288174
:100730003E4A3F4913680133136023640B688342C8
:1007400038BF086000EB800008EB80003946FEF7F8
:1007500041FE01F0D7FB33686BB12A68E36AD26AC5
:100760009A4208D2334B4FF080525A6040BFBFF3D9
:100770004F8FBFF36F8F01F06BF9012815D0BDE8E3
:10078000F8832846BDE8F84301F0C8BA2B68DB6A55
:10079000834298BF2C60C9E72C601368012B13D0EB
:1007A000E06ADFF8B480204EC2E7A02383F311880B
:1007B000214A224B4FF0FF311160002230601A6055
:1007C000BDE8F84301F06EBBDFF88C80464608F1C7
:1007D0008C0930461436FEF7EDFD4E45F9D1DFF8B1
:1007E0007C90174E4846FEF7E5FD3046FEF7E2FDE9
:1007F0001448FEF7DFFD1448FEF7DCFD1348FEF752
:10080000D9FD134BE06AC3F80090124B1E60064EF0
:100810008EE700BF49444C45750B0200942D002023
:10082000B82D0020B82E0020AC2D00209C2D0020DB
:10083000B02D002000ED00E0982D0020B42D002008
:10084000042E0020E82D0020D42D0020BC2D0020F7
:10085000002E0020FC2D00202C2E0020182E002021
:10086000024A136801331360704700BF902D0020C7
:10087000014B1868704700BFB42D0020014B186869
:10088000704700BFB42D0020014B1868704700BFAF
:10089000B82D0020024A136803441360704700BF5C
:1008A000B42D00202DE9F04F3D4B1B6883B0002B89
:1008B0004CD13C4B1E6801361E60002E4CD03A4B8A
:1008C00001931B68B34245D8384F3B681D68002D23
:1008D00060D0DFF8EC80DFF8ECA0DFF8EC900025CA
:1008E00020E0FEF79DFDA36A04F118000BB1FEF7AE
:1008F00097FDE36AD8F8002003EB83009342594642
:100900000AEB800088BFC8F80030FEF763FDD9F815
:1009100000203B68E16AD26A1B68914228BF01252A
:10092000002B37D03B68DB68DC68636804F1040B9C
:100930009E425846D5D2019A13601D4B1B68002B6E
:100940000CBF2846012003B0BDE8F08F194A136898
:10095000013313600025F0E7144B174A186811683B
:100960001960164910600A6801320A601A68126834
:100970003AB90D4B01931A464FF0FF3313601346FB
:100980009FE71B68084ADB680192DB685B681360BD
:10099000134696E7019A4FF0FF331360CDE700BF8F
:1009A000902D0020B42D0020982D0020002E002036
:1009B000A42D0020A82D0020FC2D0020A02D00201B
:1009C000B02D00202C2E0020B82E00202DE9F84F4D
:1009D00001F08EFA3B4B1A68013A1A601B68002B33
:1009E00059D1394B1B68002B55D0384D2B68002B43
:1009F00064D0374EDFF8F080364FDFF8F0904FF0DC
:100A0000010AEB68DC6804F1040B04F11800FEF73E
:100A100007FD5846FEF704FDE36A326803EB8300E6
:100A20009342594608EB800088BF3360FEF7D2FC42
:100A30003B68E26ADB6A9A4233D3C9F800A02B68AC
:100A4000002BDED1244B1A681268002A31D01A68B4
:100A5000224BD268D26852681A60214E346844B181
:100A60000125FFF71FFF08B1C9F80050013CF8D17C
:100A70003460D9F8003073B11A4B4FF080525A608D
:100A800040BFBFF34F8FBFF36F8F012401F03AFADD
:100A90002046BDE8F88F002401F034FA2046BDE876
:100AA000F88F2B68002BACD10B4B1A681268002A08
:100AB000CDD10A4B4FF0FF321A60CEE7DFF82C9011
:100AC000CBE700BF902D0020B82D0020E82D00209E
:100AD000B02D0020B82E0020002E0020982D0020E0
:100AE000A82D002000ED00E02C2E0020A42D0020D9
:100AF00070B548B9184B4FF080525A6040BFBFF3F1
:100B00004F8FBFF36F8F70BD144A15491368154D91
:100B1000013313600E68044628680430FEF780FC39
:100B20002B68A4195C600FD20F4B18682968043138
:100B3000FEF75EFC0D4B1A68944238BF1C60FFF74D
:100B400045FF0028D6D070BD094B186829680431CC
:100B5000FEF74EFCF3E700BF00ED00E0902D002013
:100B6000B42D0020B82E0020002E0020982D00204B
:100B7000FC2D00202DE9F84F384D394F394EDFF864
:100B8000F480DFF8F4A0DFF8F490DFF8F4B014E0BC
:100B900001F0AEF9FB68DC68201DFEF741FC33680C
:100BA000013B33602B68013B2B6001F0ABF9206BFC
:100BB00001F0B4F8204601F0B1F82B68002BE7D122
:100BC000D8F80030012B08D94FF08053CBF804300F
:100BD00040BFBFF34F8FBFF36F8FFEF7CFFBDAF845
:100BE0000030FBB9D9F80030DB6A002BE5D1D8F82A
:100BF0000030012BE1D81C4B1C4A1B6812689B1A61
:100C0000012BDAD91A4A136801331360DAF800307D
:100C100083B1D9F80030DB6A0BB9D8F80030FFF7A0
:100C2000D5FECAE7D9F80030DB6A002BC5D1D8F869
:100C30000030C2E7D9F80030DB6A002BEFD1D8F8DA
:100C40000030012BEBD8084B1868084B1B68C01A02
:100C50000128E4D919F0EAFDE1E700BFD02D00201A
:100C6000D42D0020B82D0020982D0020B42D002078
:100C7000902D00202C2E0020B02D0020B82E00201A
:100C800000ED00E04B685B682DE9F04F01F10808CA
:100C9000434508BFCB68DFF8D89093460027DA6851
:100CA00083B00E460446BA465B687360984504BF3D
:100CB000D8F804307360DD68002D40D02B46D86A28
:100CC0002061186C2360196BA060986C606103F15F
:100CD00034006060D9F800008342C4E906A131D035
:100CE000BBF1030F84F80CB011D1986A00931F4B2D
:100CF00001920028186800F1010018600CBF032061
:100D000002202073FFF762FE009B019A196B0B789B
:100D1000A52B1CD10B469E4613F8010FA528FAD02F
:100D2000C1F1010CF444CCF38F0CAA42A4F820C00A
:100D300007F1010704F1240413D07368B4E7D9F86C
:100D40000030BCE784F80CA00B78A52BE2D04FF064
:100D5000000CAA42A4F820C007F1010704F1240402
:100D6000EBD1384603B0BDE8F08F00BF902D0020D6
:100D7000B82E00202DE9F04F584C2368013385B080
:100D80002360574B1B688B4200F2A080DFF864E1C0
:100D9000DFF864810390144600260723AEF1800B30
:100DA000B2461A463146A146013A02EB82035BF88D
:100DB0002330002B47D05EF8043C5E68039B7645E9
:100DC00008BFDEF8046001EBC100CDE9012103EBAF
:100DD0008000F3684FF0000C76684EF8046C76459E
:100DE00004BF76684EF8046CF768002F69D03A4665
:100DF000D16A02600161D8F80010156C146B85602F
:100E0000511A956CC46118BF0121343245610173D8
:100E10004260C0F818A02278A52A55D1224615466E
:100E200012F8011FA529FAD0C4F101042C44C4F31F
:100E30008F04BB4204840CF1010C00F12400CBD1DF
:100E4000DDE901216144AEF1140E002AACD1254B3D
:100E5000039D01EBC1000E4619680B684C4605EB7B
:100E600080003BB10222FFF70DFF064406EBC600EF
:100E700005EB80001C4B19680B683BB10222FFF7A1
:100E800001FF064406EBC60005EB800017490B681E
:100E90003BB10422FFF7F6FE064406EBC60005EB65
:100EA000800013490B681BB10322FFF7EBFE0644D9
:100EB0006CB100232360FFF789FD304605B0BDE823
:100EC000F08FD8F8002093E70024B2E70026FFF760
:100ED0007DFD304605B0BDE8F08F00BF902D0020AD
:100EE000B82D0020002E0020FC2D0020D42D002045
:100EF000BC2D0020AC2E0020B82E00203A4B1B68E1
:100F00001BB13A4B01221A607047384A384830B555
:100F100013600268374B02EB820C4FEA8C0C910095
:100F200053F80C40002C46D102F1FF3C0CEB8C0E28
:100F30004FEA8E0E4FEA8C0153F80E40002C51D12F
:100F4000A2F1020C0CEB8C0E4FEA8E0E4FEA8C01D4
:100F500053F80E40002C45D1A2F1030C0CEB8C0E83
:100F60004FEA8E0E4FEA8C0153F80E40002C39D117
:100F7000A2F1040C0CEB8C0E4FEA8E0E4FEA8C01A2
:100F800053F80E4074BB541F04EB840C4FEA8C0CD6
:100F9000A10053F80C501DBB941F04EB840C4FEAC6
:100FA0008C0CA10053F80C50D5B9073A02EB82041F
:100FB000A40091001C59114403EB810C6346DCF83A
:100FC00004104968CCF804100833994208BF4968F6
:100FD000094B08BFCCF80410C9681960026030BD25
:100FE0002246E8E76246E6E7902D0020A42D002087
:100FF000B02D00202C2E0020B82E002070B5174DEB
:101000002B680C4603F11801FEF7F2F9144B1E6829
:1010100028680430FEF704FA631C17D02B68A41963
:101020005C6007D30F4B18682968BDE87040043135
:10103000FEF7DEB90C4B186829680431FEF7D8F9C1
:101040000A4B1A68944238BF1C6070BD2968084872
:10105000BDE870400431FEF7BDB900BFB82E0020D6
:10106000B42D0020FC2D0020002E0020982D002003
:10107000BC2D002070B5194D0C4629681646183154
:10108000FEF7A8F9164B5EB11B6828680430FEF71E
:10109000C7F929681348BDE870400431FEF79AB9D2
:1010A0001E6828680430FEF7BBF92B68A4195C6041
:1010B00007D30D4B18682968BDE870400431FEF76E
:1010C00097B90A4B186829680431FEF791F9084B63
:1010D0001A68944238BF1C6070BD00BFB82E002053
:1010E000B42D0020BC2D0020FC2D0020002E00205F
:1010F000982D002038B5C368DC6804F1180528462F
:10110000FEF78EF91A4B1B68002B2CD1251D2846A3
:10111000FEF786F9174AE36A116817488B4288BFC1
:10112000136003EB8303294600EB8300FEF752F9BB
:10113000124BE26A1B68DB6A9A4282BF104B0120A5
:101140001860104B1A68126898BF002022B90E4B25
:101150004FF0FF321A6038BD1A680B4BD268D26864
:1011600052681A6038BD09482946FEF733F9DFE7AF
:10117000902D0020B02D00202C2E0020B82E002015
:10118000A42D0020002E0020982D0020E82D002006
:10119000034A044B12681B68C0E90023704700BF74
:1011A000A02D0020B42D0020F8B50D46044600F017
:1011B0009FFE2B68124A581C116819D0DFF844C0F2
:1011C000D4E90060DCF80070BE4206D0884204D842
:1011D000012400F097FE2046F8BD0F1ABB420CD93F
:1011E0005B1ADCF80010126803442B60C4E900129B
:1011F000002400F087FE2046F8BD00232B60E7E7BF
:10120000B42D0020A02D0020014B01221A60704750
:10121000A42D0020094B186818B9094B1B6813B19D
:10122000704700207047074A074B10681B68013B56
:1012300098420CBF02200120704700BFE82D00201B
:10124000A42D0020BC2D0020B82D0020054B1B68CC
:1012500033B1054B1868B0FA80F040094000704780
:1012600001207047AC2D0020902D0020F8B50446D9
:10127000C8B11B4DC36A2A68D26A934214D28269EC
:10128000002A04DB2A68D26AC2F107028261154E85
:10129000626903EB830306EB83039A420CD02B684D
:1012A000DB6AE3620120F8BD2B68806CDB6A984240
:1012B0002CBF00200120F8BD271D3846FEF7B0F8EE
:1012C0002A68094BD06A1A68E062904200D9186017
:1012D00000EB8000394606EB8000FEF77BF8E1E783
:1012E000B82E00202C2E0020B02D002058B138B58B
:1012F000C16AC36C826C013B91420446C36400D056
:101300001BB1002038BD00207047051D2846FEF7A0
:1013100087F8A36C094A0A48E362C3F10701A16197
:1013200011688B4288BF136003EB830300EB8300DB
:101330002946FEF74FF8012038BD00BFB02D002030
:101340002C2E002060B1826CC36A914238BF1146D6
:101350008B4270B5044602D0C26C012A01D070BD28
:1013600070478269104DC162002A03EB8303426912
:10137000A8BFC1F1070105EB8303A8BF81619A42B1
:10138000EDD1061D3046FEF74BF8084BE06A1A68AF
:10139000904288BF186000EB8000314605EB80006A
:1013A000BDE87040FEF716B82C2E0020B02D0020AE
:1013B000044B1A681AB11968CA6C0132CA641868F9
:1013C000704700BFB82E0020F8B5284C06460D46E1
:1013D00000F08EFD23681B6D23B92368012283F87A
:1013E0005420ADB900F08EFD00F082FD23681D6D24
:1013F0001DB123684EB100221A652368002283F8CC
:10140000542000F07FFD2846F8BD6A1E1A65F4E7F7
:10141000174B1F6820680430FEF702F86B1C13D0CE
:101420002368ED195D6015D3124B186821680431EB
:10143000FDF7DEFF104B4FF080525A6040BFBFF304
:101440004F8FBFF36F8FCDE721680C480431FDF754
:10145000C1FFEFE70A4B186821680431FDF7C8FFA8
:10146000084B1A68954238BF1D60E3E7B82E00208C
:10147000B42D0020FC2D002000ED00E0BC2D00204C
:10148000002E0020982D00202DE9F041304C1E4602
:1014900007468846154600F02BFD236893F8543024
:1014A000022B09D02268136D23EA07031365236812
:1014B000012183F85410B6B900F024FD00F018FDA6
:1014C00015B123681B6D2B60236893F85430022BF1
:1014D00025D000252368002283F8542000F012FD57
:1014E0002846BDE8F0811B4B1F6820680430FDF7DB
:1014F00097FF731C1AD02368F6195E601CD3164B35
:10150000186821680431FDF773FF144B4FF08052C7
:101510005A6040BFBFF34F8FBFF36F8FCCE7226895
:10152000136D23EA080301251365D3E721680C48EE
:101530000431FDF74FFFE8E70A4B186821680431D2
:10154000FDF756FF084B1A68964238BF1E60DCE76D
:10155000B82E0020B42D0020FC2D002000ED00E06E
:10156000BC2D0020002E0020982D0020F8B51E462E
:1015700004460F46154600F0BBFC0EB1236D3360E8
:1015800094F8543002216A1EDBB284F85410032A06
:1015900006D8DFE802F03C0C0402022B3BD02765A2
:1015A000012B0AD0012400F0ADFC2046F8BD226DCD
:1015B000012B02F101022265F4D1251D2846FDF719
:1015C0002FFF194AE36A116818488B4288BF1360DD
:1015D00003EB830300EB83002946FDF7FBFE144B6E
:1015E0001A681268CAB9134B4FF0FF321A60124BD7
:1015F000E26A1B68DB6A9A42D4D9104B4FF08052E2
:101600005A6040BFBFF34F8FBFF36F8FCAE7226DA1
:101610003A432265C4E70024C5E71A68054BD2683F
:10162000D26852681A60E2E7B02D00202C2E00200C
:10163000002E0020982D0020B82E002000ED00E0A4
:1016400070B50446EFF31185A02080F311880BB12B
:10165000206D186094F854300220013ADBB284F80F
:101660005400032A06D8DFE802F0250B0402022BFF
:1016700037D02165012B09D0012085F3118870BD79
:10168000226D012B02F101022265F5D1184B1B6876
:10169000A3B1184804F11801FDF79CFE164BE26A4D
:1016A0001B68DB6A9A42E7D9049BE3B11A4601231F
:1016B0001360E1E7226D0A432265DBE7261D304611
:1016C000FDF7AEFE0D4AE36A11680D488B4288BFF4
:1016D000136003EB8303314600EB8300FDF77AFED2
:1016E000DCE70020C9E7074B01221A60C4E700BF0E
:1016F000902D0020E82D0020B82E0020B02D0020D5
:101700002C2E0020A42D0020F8B5EFF31185A02386
:1017100083F31188022390F8542080F85430036D2D
:10172000012A03F10103036502D085F31188F8BD96
:10173000164B1B6804460E4683B1154804F1180188
:10174000FDF748FE134BE26A1B68DB6A9A42ECD94C
:10175000BEB10123336085F31188F8BD071D3846FB
:10176000FDF75EFE0C4BE06A1A68904288BF186075
:101770000A4B00EB8000394603EB8000FDF72AFEA0
:10178000E0E7074B01221A60CFE700BF902D002051
:10179000E82D0020B82E0020B02D00202C2E002097
:1017A000A42D00202DE9F0411C4E84B00CE0DB6834
:1017B000DC681F68251D2846FDF732FE636A204657
:1017C0009847E369012B0AD033681A68002AEED1E2
:1017D000134A11683160136004B0BDE8F081A36959
:1017E000DFF840803B449F42294611D3D8F80030AF
:1017F0000025002BE8D0CDE900570294FFF726FD25
:10180000D8F800002B462A466946FDF783FEDBE741
:10181000306863602461FDF7EBFDD5E7CC2E002036
:10182000C82E0020C42E00202DE9F04F834E844D99
:10183000844CDFF818928BB03268D2F80080B8F18F
:10184000000F00F09780D368D3F80080FFF708F806
:10185000FFF70EF82A6890428346C0F09C808045CE
:10186000286040F2AB8000222068A8EB0B01FEF755
:1018700045FCFFF7ABF840B94FF08053C9F804308E
:1018800040BFBFF34F8FBFF36F8F2068002202A9C4
:10189000FEF7CEF80028CFD0029B0498002B62DB25
:1018A000049F7B6913B1381DFDF7BAFDFEF7E0FF19
:1018B0002B689842834675D3029BC5F800B0092B6C
:1018C000E3D801A252F823F0F1180200F118020047
:1018D000F11802008B1802003F1902005F19020084
:1018E000F1180200F11802008B1802003F190200E3
:1018F000039BBA693F6199182CBF0120002059450C
:10190000796052D8ABEB03039A4222D87B6A3846FF
:101910009847FB69012BB8D12368002BB5D0002371
:10192000BA690693039B089713440793FFF78EFC4D
:10193000002320681A4606A9FDF7ECFDA5E7039BE6
:10194000BB6103EB0B025A457A603F6131D8002B33
:101950009BD03D4B391D1868FDF74AFD95E7384689
:1019600000F0DCF991E7039B05999847029B002B57
:101970008BDB95E7FEF774FFFEF77AFF2A68824259
:10198000834608D8304BC5F800B01A681268B2FA1E
:1019900082F2520968E7FFF705FFC5F800B0FFF7CC
:1019A00015F872E7FFF7FEFE86E75B4501D90028D0
:1019B000ACD03068391DFDF71BFD66E7FFF706F870
:1019C0003268D268D2F80CA00AF1040108460191ED
:1019D000FDF726FDDAF81C200199012A04D0DAF877
:1019E00024305046984750E7DAF81820CAF810A07B
:1019F00008EB02005845CAF8040003D93068FDF727
:101A0000F7FCECE7ABEB080B5A4511D82268002A2B
:101A1000E5D04FF0000BCDE9078ACDF818B0FFF7FD
:101A200015FC20685B465A4606A9FDF773FDD6E70C
:101A3000054B1868FDF7DCFCD1E700BFCC2E002079
:101A4000BC2E0020C42E0020C82E002000ED00E097
:101A5000F0B5174C83B000F04BFA25687DB100F06B
:101A600051FA206848B1134A134914480223CDE9BA
:101A7000003200238022FEF7A5FB03B0F0BD104F1B
:101A8000104E3846FDF796FC3046FDF793FC0E4BA2
:101A90001F600E4B2A46102103201E60FDF7D4FC68
:101AA00020600028DBD00A49FEF700FBD7E700BF23
:101AB000C42E0020C02E0020F45506002918020074
:101AC000E42E0020D02E0020CC2E0020C82E002096
:101AD000EC5506002DE9F04F074683B02C208846D0
:101AE00016461D4600F076F8044688B1DFF870907F
:101AF00000F0FEF9D9F8002072B100F003FA0C9B57
:101B00002760C4E9068625626362201DFDF75EFC3E
:101B1000204603B0BDE8F08FDFF848B0DFF848A0FA
:101B200001925846FDF746FC5046FDF743FC094B31
:101B3000019AC3F800B0084B10210320C3F800A09D
:101B4000FDF782FCC9F800000028D6D00349FEF753
:101B5000ADFAD2E7CC2E0020C82E0020EC550600AE
:101B6000C42E0020E42E0020D02E002030B5134DCE
:101B70000446286885B070B10529CDE900120294A9
:101B80000BDCFFF763FB02280FD0002328681A46FE
:101B90006946FDF7BFFC05B030BD9C466246002398
:101BA0006946FDF797FE05B030BD2868089A002306
:101BB0006946FDF7AFFC05B030BD00BFC42E002064
:101BC00010B5044600F094F9246A00F09BF9204611
:101BD00010BD00BF2DE9F0470446FEF741FE484A1C
:101BE0001668002E3ED0474B1F683C4234D1A4B348
:101BF00004F1080563071CBF25F0070508355DB330
:101C0000DFF814E1DEF800C0AC4525D33E48036898
:101C100003E01A6822B1184613465968A942F8D35E
:101C2000B34219D01C464A1B54F8088BC0F80080F8
:101C3000102A35D835480568ACEB01020F43002166
:101C4000AA42C3E90017CEF8002038BF0260FEF7B1
:101C5000BDFE2046BDE8F0870024FEF7B7FE204613
:101C6000BDE8F0872A4B2B4E2748264D590718BF51
:101C7000073326F0070618BF23F007031660234A30
:101C800003601946F31A1360234A4FF000471360AC
:101C9000002242602F60C6E90022C1E90063A4E788
:101CA00058194260184A5D60904612689042FBD80D
:101CB000D8F80410D0F8049008EB010A50450AD077
:101CC00000EB09018A4210D002602946804518BF06
:101CD000C8F80000AEE7894408EB09018A42C8F859
:101CE000049001D05968A5E74046B2421CBF516834
:101CF000126802601CBF494441605968E6E700BFB2
:101D0000042F0020F82E0020082F0020FC2E002099
:101D1000102F002008F70020002F002058B1234A80
:101D200038B5126850F8043C1342044602D050F80B
:101D3000081C09B138BD704723EA020340F8043C8F
:101D4000A0F10805FEF78CFD194854F8041C026840
:101D5000184B0A4402601A461B689D42FBD8506823
:101D600002EB000C65450BD06818834218D044F88C
:101D7000083CAA4218BF1560BDE83840FEF726BEF1
:101D80000144501883425160F6D10B4800688342E9
:101D9000F2D01546D3E900400144C5E90041E8E727
:101DA000054800688342F5D1E1E700BFF82E002026
:101DB000002F0020082F0020042F0020014B18685E
:101DC000704700BF002F0020014B1868704700BF0C
:101DD000FC2E00200748006880F3088862B661B6D0
:101DE000BFF34F8FBFF36F8F4FF4F07080F3118804
:101DF00000DF00BF00C00100064B19680868B0E8AA
:101E0000F04F80F30988BFF36F8F4FF0000080F32D
:101E100011887047B82E0020EFF30980BFF36F8F51
:101E2000144B1A681EF0100F08BF20ED108A20E92D
:101E3000F04F10604DF8043D4FF0A00080F3118882
:101E4000BFF34F8FBFF36F8FFFF758F84FF00000CD
:101E500080F3118808BC19680868B0E8F04F1EF0DC
:101E6000100F08BFB0EC108A80F30988BFF36F8FA2
:101E7000704700BFB82E0020A02383F31188FEE72F
:101E800010B44FF08073064C40F8043C6FF002032E
:101E900040E9034140E909325DF8044B443870479A
:101EA000791E02000F4C08B5E02384F8223000F0C0
:101EB0006FF80D4B00221A60D4F888300B4A43F4B7
:101EC0007003C4F88830536B43F040435363236975
:101ED00043F010032361FFF77DFFA02383F31188F4
:101EE000FEE700BF00ED00E010F7002000EF00E08B
:101EF000A02383F31188024A1368013313607047EB
:101F000010F70020034A1368013B13600BB983F3F9
:101F10001188704710F7002070B582B0EFF311867A
:101F2000A02383F31188184B0022D3F80445C3F88B
:101F30000021D3F800310193019BFEF799FC201A90
:101F400020F07F4323F0010320F07F459BB96C1EF6
:101F50006DB10025FEF7A6FC23460543013C002B8E
:101F6000F8D125B1094B4FF080525A6040BF86F33B
:101F7000118802B070BDFFF769F90228E7D0FEF7BB
:101F800091FC0546EDE700BF0010014000ED00E0C8
:101F900010B5002012F086FD094B0A4901222024C9
:101FA000C3F808450220C3F804239A601A60E022AF
:101FB000C3F8440381F811234FF400330B6010BDC4
:101FC0000010014000E100E0826842B110B54369B1
:101FD00001680446006998470023A36010BD70475C
:101FE0000EB400B582B0039921B104AB01AA0193EC
:101FF00000F09CF802B05DF804EB03B0704700BF3E
:102000002DE9F84F1546A942DDF828A00B9A0F4696
:1020100006469B46C0F085800B464FF00108B3FB97
:10202000F5F39D4208F10108F9D9D84538BFD846E3
:1020300012F00109B16802D1BAF1000F51D1BBF120
:10204000010F4FF0010406D90BF1FF3BBBF1010F6B
:1020500005FB04F4F8D8B7FBF4F2954205D805FB6C
:1020600004F4B7FBF4F29542F9D9DFF8BCB007E00D
:10207000AC42B4FBF5F316D3B7FBF3F2B1681C46E0
:102080004B1CB36033681BF80200585404FB1277F2
:10209000D6E901329A42EBD33046FFF795FFB4FB05
:1020A000F5F3AC42E8D2B9F1000F18D0BAF1000F45
:1020B00015D0C24513D9202401E0C2450FD0B36822
:1020C0003268591CB160D454D6E901329A420AF1FF
:1020D000FF3AF2D33046FFF777FFC245EFD1BDE8B4
:1020E000F88F930717D42024C245A8D932684B1C17
:1020F000B3605454D6E9012191420AF1FF3A05D266
:10210000BAF1000F9BD0C245F0D198E73046FFF7F7
:102110005BFFB168F4E7BBF1000F0CBF3024202453
:10212000E2E74FF0010880E7C0960600002900F0C2
:10213000E4812DE9F04F0C4685B014F8013B0646CA
:1021400091461BB913E023788BB10134252B15D0B0
:10215000B2683168501CB0608B54D6E901239342B9
:10216000F1D33046FFF730FF2378002BEDD1337BDE
:10217000002B40F0B98005B0BDE8F08F2246002763
:1021800012F8013B2D2B00F08780302B00F0888067
:102190002B2B78D02A2B00F08780A3F1300109295E
:1021A0004FF000050DD805EB850503EB45051378C9
:1021B000A3F1300109291446A5F1300502F101020D
:1021C000F1D92E2B224678D04FF00008541C03F092
:1021D000FB02682A4CD0252B52D0583BDAB2202A79
:1021E000B1D8202BAFD801A252F823F085230200EA
:1021F0004721020047210200472102004721020037
:102200004721020047210200472102004721020026
:102210004721020047210200C7240200F5220200E4
:102220004721020047210200472102004721020006
:10223000F522020047210200472102004721020047
:10224000472102004721020047210200A12302008A
:1022500047210200472102004D24020047210200CD
:10226000BD2402004721020047210200852302000D
:1022700014F8013B03F0FB02682AF9D0252BACD1FE
:102280003168B26866E747F004071446224612F840
:10229000013B2D2B7FF479AF47F001071446F5E79A
:1022A00047F002071446F1E7D9F80030191DC9F8C4
:1022B00000101D6863782E2B86D15378A3F130016E
:1022C000092902F101024FF000083FF67FAF08EB49
:1022D000880803EB480812F8013FA3F130010929EF
:1022E000A8F13008F3D971E7304605B0BDE8F04FEA
:1022F000FFF76ABED9F80030D3F800A00433C9F85C
:1023000000308AEAEA73A3EBEA73092B40F3AD814C
:10231000B84801211A46632AA0FB03C301F1010159
:102320004FEAD303F6DC414538BF41468B4607F000
:102330000301002D00F0E280BAF1000F07F0020265
:10234000C0F2368117F0040340F05881002A40F0B3
:102350009681002F40F0EA805D4540F2E78020231F
:10236000B268501CB06030688354D6E901028242E2
:1023700005F1FF3580F03181002D00F0BF80AB45C5
:10238000EED1BCE0D9F800004346102201680430C9
:10239000CDE90057C9F800003046FFF731FED2E61C
:1023A000D9F80030D3F800801A1DB368C9F80020AE
:1023B0003268581C3021B060D154D6E901239342D1
:1023C00080F04E81591C3268B1607821D154D6E931
:1023D00001329A4280F03F81B8F10F0F474603D98E
:1023E00043461B090F2BFCD801250823013B012B79
:1023F00029464FEA0515F9D1B8FBF5F30F2B09D99A
:102400000D02B8FBF5F30F2B04D92D01B8FBF5F342
:102410000F2BFAD8DFF8E08106E00F2D4FEA1513F5
:102420007FF691AEB2681D46511CB1603168B7FBB2
:10243000F5F318F80300885405FB1377D6E9012358
:102440009342EAD33046FFF7BFFDE6E7D9F8003004
:102450001A1DC9F8002017F00107D3F800806ED0CC
:1024600098F80020002A00F01181B3684746C8F1AF
:10247000010A3168581CB060CA54D6E9012393425E
:102480000AEB070830D217F8012F002AF1D1454591
:102490007FF659AE202702E045453FF454AEB368BD
:1024A0003268591CB160D754D6E90123934205F133
:1024B000FF35F1D33046FFF787FDEDE7D9F800008F
:1024C00043460A2262E7D9F8003019781A1DB3682A
:1024D000C9F800203268581CB060D154D6E90123F5
:1024E0009342FFF430AE3CE63046FFF76DFD17F83F
:1024F000012F002ACBD0B368BBE770470025BAF1A3
:10250000000F5DDB07F0040373B1B2683368501C41
:10251000B0602B209854D6E901329A4204D3304659
:102520000391FFF751FD0399022976D0CDE90057B9
:10253000434651460A223046FFF762FD03E6B8F1F2
:10254000000F03D040461DF0CAFA0746BD4214D919
:102550004FF0200A01E0BD420FD0B3683268591C29
:10256000B16002F803A0D6E90123934205F1FF35DB
:10257000F1D33046FFF728FDEDE798F80020002A58
:102580003FF4E1ADB3683168581CB060CA54D6E975
:102590000123934204D218F8012F002AF3D1D2E587
:1025A0003046FFF711FD18F8012F002AEAD1CAE5DD
:1025B000013D002A5BD0B8F1000F01D0F80725D506
:1025C000B2683368501CB0602D209854D6E90132AF
:1025D0009A4209D2CAF1000AA6E730460391FFF7F2
:1025E000F3FC03992023C7E630460391FFF7ECFC88
:1025F0000399EFE7CDCCCCCCC0960600013D12B1DB
:10260000B8F1000F80D0FA073FF57EAF002D3FF400
:1026100075AFAB45FFF4A3AE71E7B8F1000F85D1FC
:10262000002D83D0AB4581D23021B2683368501C75
:10263000B0609954D6E901329A4205F1FF3505D2CE
:10264000002D3FF473AFAB45EFD16FE73046FFF796
:10265000BBFC3021F4E73046FFF7B6FCB268BBE6BE
:102660003046FFF7B1FCB368ACE601215BE6FB073F
:10267000A6D4002DA4D0AB45FFF471AEA0E7B8F10D
:10268000000F05D102297FF451AFCBE79046FEE65B
:10269000FB073FF549AF5D453FF661AE44E700BF3C
:1026A0002DE9F04FDFF8789100EB400609EBC60604
:1026B00083B0D6F82CA0BAF1010F80468B4617469E
:1026C0004FEA400547D0BAF1020F10D0BAF1000F1F
:1026D00073D1B36A746AA3429CBF326A9B18013BF0
:1026E0001B1B9F4274D9504603B0BDE8F08F00F128
:1026F000010808EB4808756A4FEAC8084FF0000A5D
:10270000B36A346AAB4203F1FF329CBF1B1903F179
:10271000FF33A4EB05048CBF531B5B1B09EB0802C2
:10272000BC4228BF3C469C42506828BF1C465946C4
:10273000284422461DF05CFA336A25449D4208BFB6
:1027400000253F1BA244A3447562002FD8D15046F8
:1027500003B0BDE8F08FD6E90834B26AA24298BF50
:1027600002EB030A00F1010694BF0AF1FF3A02F1FD
:10277000FF3A06EB4606AAEB040A09EBC606BA4581
:1027800028BFBA4670681F1BBA4520441BD33A467F
:1027900001931DF02DFA019B7068E41A54440BEB71
:1027A000070122461DF024FA454409EBC5095046AD
:1027B000C9F8244003B0BDE8F08F4FF0000A50463E
:1027C00003B0BDE8F08F52461DF012FA5444EBE717
:1027D0002B18461C09EBC30306EB4606D3F820A0D2
:1027E00009EBC606AAEB04027068974220443C44F9
:1027F00011D301921DF0FCF9019A7068A4EB0A0450
:102800000BEB020122461DF0F3F9454409EBC50527
:10281000BA466C6267E73A461DF0EAF9F5E700BF91
:1028200028F9002000000000154A164B1068164ACF
:1028300010B4C3F8070092E80300144C18609FED31
:102840000E7B00229980202011499C619C64114CD0
:102850009A625A62DA62DC649A6510245A65DA6513
:1028600098714FF400721C6583ED047BC3E9071275
:102870005DF8044B704700BF02000000020000003A
:102880000856060028F900200C560600FC550600E4
:1028900024F7002014F700202DE9F04FADF61C0DB1
:1028A00005A80DF214450123590081EA030213F033
:1028B000800440F8043F82F01B0206D1A84283EA5C
:1028C0000103F1D12246012304E0A842D3B2EBD1A7
:1028D000012300220DF5836B580083EA00011C06DA
:1028E0004BF8232081F01B0102F1010240F1E98045
:1028F000B2F5807FCBB2EFD1774B022004220121C9
:10290000C3E900109A6008201022C3E903022020C6
:102910004022C3E905021B24362570488022C3E902
:102920000845DA616E4D63230370002385F8633038
:102930005C4654F8043F06AAC3F1FF0352F823E0B3
:102940004FEAEE1242EA4E025FFA82FCC2F3C01274
:1029500042EA4C02D7B2C2F3C01242EA4702D6B2F0
:10296000C2F3C01343EA4603DBB283EA0E0383EAF1
:102970000C037B40734083F0630300F8013FE9548C
:102980000131B1F5807FD4D1DBF838300293DBF828
:102990002430544A0393DBF834300493524DDBF86F
:1029A0002C30524C52485349059302F5807E12F860
:1029B000016F730016F0800F18BF83F01B0306EB46
:1029C0000627DBB25E4043EA072383EA06634FEA49
:1029D000336C4FEA33474FEA3326964545F8043FB8
:1029E00044F804CF40F8047F41F8046FDFD1424D32
:1029F000DFF818E1DFF81881404F414E414C019556
:102A000054E05BF82320049B0399059DD3185018CC
:102A100084FB0319994484FB00CA4FEAE37CCCEBA6
:102A2000E91CCCEB0C2C02998244A3EB0C034FEA7B
:102A3000E07C1144CCEBEA1C2A4406ADCCEB0C2C18
:102A4000A0EB0C0055F823304FEA034955F820302D
:102A500084FB010C8C44C817C0EBEC10C0EB0020C9
:102A6000091A89EA032355F821104B4084FB021010
:102A70001044D117C1EBE011C1EB0121521A55F8F6
:102A8000222083EA02634FEA336247F8042F4FEAB9
:102A9000334246F8042F48F8043F4FEA3323019AA3
:102AA00042F8043F184B01929E4511D01EF8013F99
:102AB000002BA6D148F8043F47F8043F46F8043FEE
:102AC000EDE7B2F5807F83EA00037FF405AF13E7FB
:102AD0000DF61C0DBDE8F08FA8F90020D01A0120DA
:102AE000D0090120CF1A0120CC160120CC120120E0
:102AF000CC0E0120CC0A0120CCF90020CC01012011
:102B0000CCFD002081808080CF0A0120CF090120E8
:102B1000CC05012010B5CB684C68D1F800C08A689C
:102B2000D90FC9001CEB0C0CC1F108014FF0870E46
:102B30004EFA01FE44EB0401921842EAD4728EEA86
:102B40000C0C82604FF000025B41C0F800C094465C
:102B500081EAEE7163F3070C4FEA132E1C0C6EF33F
:102B60000F2C1B0E64F3174C61F3070263F31F6C09
:102B70000B0A63F30F220B0C63F31742090E61F388
:102B80001F62C0F80CC0426010BD00BF4FF48C72D1
:102B900000211DF05FB800BF18B14FF48C7106F032
:102BA000ABBE704738B54FF48C752A4604460021F9
:102BB0001DF050F82A4660190021BDE838401DF08C
:102BC00049B800BF60B110B54FF48C71044606F0EF
:102BD00093FE4FF48C716018BDE8104006F08CBE77
:102BE000704700BFC02A2DE9F84F164607460C462D
:102BF00000F0CF81B2F5807F00F0BB81802A40F0E9
:102C0000D081C94D2B680A220260002B00F0B881E8
:102C100007F108037B601546A1786078090441EA52
:102C2000002120780143E07841EA00611960A17930
:102C30006079090441EA002120790143E07941EA01
:102C400000615960A17A607A090441EA0021207A82
:102C50000143E07A41EA00619960A17B607B09044D
:102C600041EA0021207B0143E07B720941EA0061D7
:102C7000042AD9602DD0A17C607C090441EA00219E
:102C8000207C0143E07C41EA00611961A17D607D07
:102C9000090441EA0021207D0143E07D062A41EA42
:102CA0000061596115D0A27E617E120442EA0122C0
:102CB000217E0A43E17E42EA01629A61A27F617F3E
:102CC000207F120442EA0122E17F024342EA0162CC
:102CD000DA610C2D00F0BA810E2D00F066810A2D0C
:102CE00040F04481DA689148914E59683568D3F8CC
:102CF00008C0C2F30724075D1C6865406F40150ECD
:102D00007468455D87EA0547D5B2455D87EA056782
:102D1000C2F30745455D87EA0527794081EA0C053E
:102D20006A40C3E90471C3E90652C2F3072567404C
:102D3000455D7D40170EC75D85EA0745D7B2C75D83
:102D400085EA0765C2F30747C75D85EA07258CEA70
:102D500005046940C3E9085184EA020ECEF307274F
:102D60009C62C3F82CE010F807C0B7687D408CEA7D
:102D7000050C4FEA1E65455D8CEA054C5FFA8EF541
:102D8000CEF3074E455D8CEA056C10F80E508CEAC8
:102D9000052779404A40C3E90C7181EA04059D6327
:102DA000C2F30725DA6310F80580F5684FEA126E62
:102DB00087EA050C10F80E7088EA0C0585EA0745CD
:102DC000D7B2C75D85EA0765C2F30747C75D85EAE5
:102DD00007256C406940C3E9105184EA020ECEF326
:102DE00007279C64C3F84CE010F807C037697D40A2
:102DF0008CEA050C4FEA1E65455D8CEA054C5FFACE
:102E00008EF5CEF3074E455D8CEA056C10F80E503A
:102E10008CEA05277940C3E914714A4084EA010528
:102E20009D65C2F30725DA6510F805E0756987EA44
:102E3000050C170E8EEA0C05C75D85EA0745D7B26B
:102E4000C75D85EA0765C2F30747C75D85EA0725C1
:102E50006C406940C3E9185182EA040ECEF307279B
:102E60009C66C3F86CE010F807C0B7697D408CEA37
:102E7000050C4FEA1E65455D8CEA054C5FFA8EF540
:102E8000CEF3074E455D8CEA056C10F80E508CEAC7
:102E9000052779404A4084EA0105C3E91C719D6712
:102EA000C2F30725DA6710F805E0F56987EA050C33
:102EB000170E8EEA0C05C75D85EA0745D7B2C75DD8
:102EC00085EA0765C2F30747C75D85EA07256C40B9
:102ED0006940C3E9205182EA040CCCF30727C3F808
:102EE0008840C3F88CC010F807E0376A766A7D40E6
:102EF0004FEA1C6785EA0E05C75D85EA07455FFA5C
:102F00008CF7CCF3074CC75D85EA076510F80C70A9
:102F100085EA072569404A40C3F89050754084EA25
:102F20000106C3F8986005E0A0F90020D01A01203E
:102F3000A8F90020C2F30726C3F89410C3F89C2018
:102F4000865D7540160E865D85EA0645D6B2865DBD
:102F500085EA0665C2F30746805D85EA00204440A5
:102F600041406240C3E92801C3E92A420020BDE88C
:102F7000F88FE04D2B680E220260002B7FF448AEE4
:102F8000FFF78AFC01232B6007F108033D687B6093
:102F900042E6D84D2B680C220260002B7FF438AE3D
:102FA000EEE76FF01F00BDE8F88FD3E905E8D3E93D
:102FB000034CD3E90167DFF84893D8691D68CE490F
:102FC00059F804BFC0F307224FEA106A8A5C11F86F
:102FD0000AA042EA0A425FFA80FA82EA0B0211F87A
:102FE0000AA082EA0A62C0F3074A11F80AA082EA3C
:102FF0000A2255406E4077407C40C3E90856C3E939
:103000000A74220E11F802A0E2B28A5C42EA0A6255
:10301000C4F3072A11F80AA042EA0A22C4F3074AB5
:1030200011F80AA042EA0A428CEA020C8EEA0C0E5F
:10303000B24A88EA0E0880EA08004A45C3E90CCE85
:10304000C3E90E8003F12003BAD18FE75E69AA4875
:10305000DFF8B0E219685A68D3F808C0D3F810A0B6
:10306000DEF80440C6F3072710F80780DEF800708A
:103070007940370E81EA0801C75D81EA0741F7B25E
:10308000C75D81EA0761C6F30747C75D81EA07218B
:103090004A40DF688CEA02056F40C3E908578AEAB4
:1030A00007056E40C3E90612C3E90A56C6F30725B1
:1030B0006140455DDEF808406940350E455D81EAB6
:1030C0000541F5B2455D81EA0561C6F30745455DF9
:1030D00081EA05218CEA010582EA01088AEA0502F3
:1030E00086EA0209C3E90C1887EA050CC3F83CC05C
:1030F000C9F3072C9D631A64C3F8449010F80CC000
:1031000061408CEA010C4FEA1961415C8CEA014C88
:103110005FFA89F1C9F30749415C8CEA016C10F848
:103120000910DEF810408CEA012C88EA0C014F40AF
:103130007A40C3E912C19A6586EA070885EA010266
:103140001A65C8F307225F65C3F85C8010F8029027
:10315000DEF80C208CEA020C89EA0C024FEA186CAB
:1031600010F80CC082EA0C425FFA88FC10F80CC020
:1031700082EA0C62C8F3074C10F80CC082EA0C22F9
:103180008AEA020A88EA0A0855405140C3E9182130
:10319000C3E91CA887EA050CC3F86CC0C8F3072C68
:1031A0009D6610F80CC062408CEA02024FEA186C6F
:1031B000DEF8144010F80CC082EA0C425FFA88FC7A
:1031C000C8F3074810F80CC082EA0C6210F808C077
:1031D00082EA0C2251404F4085EA010C4E40C3E97F
:1031E0001E21C3F880C08AEA070CC3F888C0C6F362
:1031F000072CC3F88470C3F88C6010F80C90624000
:1032000089EA0209320E825C89EA0249F2B2825CE2
:10321000DEF81840DEF81CE089EA0269C6F30742CE
:10322000825C89EA022985EA09058AEA050C81EAB5
:103230000901C3E9249186EA0C0887EA0502C3F86C
:103240009C20C8F30722C3F89850C3F8A0C0C3F865
:10325000A480825C89EA040982EA09024FEA1869BB
:1032600010F8099082EA09425FFA88F9C8F3074822
:1032700010F8099010F8088082EA096282EA0822B0
:1032800051404F408CEA070C7E40C3F8B8C085EA35
:10329000010CC3F8B0C0C6F3072CC3F8A820C3F8CC
:1032A000AC10C3F8B470C3F8BC6010F80CC082EA6C
:1032B0000E028CEA02024FEA166C10F80CC082EA89
:1032C0000C425FFA86FC10F80CC082EA0C62C6F36E
:1032D000074C10F80C0082EA002255408AEA0204EA
:1032E00051406F406640C3E93021C3E93257C3E91A
:1032F00034463BE6A0F90020D01A0120C0F9002096
:10330000A4F90020A8F900202DE9F04FC9B0044627
:1033100016460D464FF48C72002102A81CF09AFC50
:1033200004F1080363603246294602A8FFF75AFCFD
:103330000746002840F0CA800299039B21604FEAAB
:10334000011C01F1FF3A03EB011153F80C30A360AB
:103350004B68E3608B682361CB686361BAF1000F4F
:1033600004F11808D646A1F1100940F39F80CDE979
:1033700000C804F128025A485A4B5B4E5B4D5C4C26
:103380002039D1F810C05FFA8CF84FEA1C6B13F8A3
:10339000088013F80BB050F8288056F82BB088EA54
:1033A0000B08CCF3072BCCF3074C13F80BB013F836
:1033B0000CC055F82BB054F82CC0103288EA0B0B17
:1033C0008BEA0C0B42F820BCD1F814C05FFA8CF8E1
:1033D0004FEA1C6B13F8088013F80BB050F82880E4
:1033E00056F82BB088EA0B08CCF3072BCCF3074C2C
:1033F00013F80BB013F80CC055F82BB054F82CC0D0
:1034000088EA0B0B8BEA0C0B103942F81CBCD1F884
:1034100028C05FFA8CF84FEA1C6B13F8088013F889
:103420000BB050F8288056F82BB088EA0B08CCF384
:10343000072BCCF3074C13F80BB013F80CC055F85E
:103440002BB054F82CC088EA0B0B8BEA0C0B42F81B
:1034500018BCD1F82CC05FFA8CF84FEA1C6B13F83B
:10346000088013F80BB050F8288056F82BB088EA83
:103470000B08CCF3072BCCF3074C13F80BB013F865
:103480000CC055F82BB054F82CC088EA0B0B8BEA13
:103490000C0BBEF1010E42F814BC7FF472AFDDE9F3
:1034A00000C8CCF1100C08EB0A18E144D9F8003040
:1034B000C8F80030D9F80430C8F80430D9F808301A
:1034C000C8F80830D9F80C30C8F80C3002A84FF40E
:1034D0008C7106F011FA384649B0BDE8F08F00BF94
:1034E000D0050120D01A0120D0F90020D001012000
:1034F000D0FD0020B2F5807F70B50D4604464FEA3E
:1035000052064FEA121102D0B2F5007F0ED13246B8
:10351000294404F58C70FFF765FB00B170BD32469D
:1035200029462046BDE87040FFF75CBB6FF01F00E6
:1035300070BD00BFB2F5807F70B50D4604464FEAFE
:1035400052064FEA121102D0B2F5007F0ED1324678
:10355000294404F58C70FFF745FB00B170BD32467D
:1035600029462046BDE87040FFF7CEBE6FF01F0031
:1035700070BD00BF2DE9F04F8FB044680B68069313
:10358000049222684D6800685340CDE9063540102A
:10359000CA6800F1FF3E886861686940CDE907109C
:1035A000A5686840CDE90802E568BEF1000F82EA2F
:1035B000050204F110050992039540F3D381DFF869
:1035C0009CA3E24EE24DCDF814E004F1300CE14C46
:1035D0000193F3465746A646DDF804905CF8203C7C
:1035E0005FFA89F44FEA126856F8244057F82880A9
:1035F0005C4084EA0804C1F307284FEA19695EF8C1
:10360000288057F8299084EA0804C0F307485FFA35
:1036100080FA55F8288084EA08045FFA81F80A9451
:103620005CF81C3C56F8288088EA030888EA0908F8
:10363000C0F30729BBF1010B5EF8299088EA09085D
:10364000C2F307490CF1200C55F8299088EA0908C3
:103650004FEA106956F82A0057F829A0CDF82C80B7
:103660004FEA1169C1F3074157F8299055F8213005
:103670005CF8381C029380EA0100C2F30721019B29
:103680005EF8211080EA090080EA0100C3F30741D7
:10369000D2B255F8211056F8222080EA0100C3F377
:1036A00007230C905EF823105CF8343C82EA03098F
:1036B00089EA0A09029B89EA010989EA03094FEAB2
:1036C0001962E3B257F8222056F82330CDF834902F
:1036D00083EA0203C8F30722C0F3072A5EF8221028
:1036E0005CF8302C83EA0203C0F3074283EA01034B
:1036F00055F8222083EA02035FFA88F2069356F80F
:10370000221001934FEA146257F8222081EA020145
:103710005CF82C2C81EA02015EF82A2081EA020181
:10372000C9F307425FFA80FA55F8222081EA0201C4
:103730004FEA106256F82A0057F8222007914FEA04
:10374000186A5CF8283C57F82AA080EA0A00C9F3F6
:10375000072A5FFA89F95EF82AA056F8299089EAC3
:103760000202C4F3074980EA030055F8299080EA71
:103770000A0080EA0900C4F3072408905CF8243C9E
:103780005EF82440C8F3074882EA030255F828800F
:1037900082EA040282EA080209927FF41DAF7446AD
:1037A000BA46DDF814E0039F019B07EB4E17039721
:1037B0005FFA83FC4FEA126E56F82CC05AF82EE0DE
:1037C0003F688CEA0E0CC1F3072E8CEA070C54F804
:1037D0002EE0039F8CEA0E0CC0F3074E4FEA1368ED
:1037E00055F82EE05AF828808CEA0E0C5FFA81FE1C
:1037F000CDF828C056F82EE07F688EEA080EC0F398
:1038000007288EEA070E54F828808EEA080EC2F3C5
:1038100007484FEA116955F828805AF829708EEA4E
:10382000080E5FFA80F8C1F3074156F82880CDF8FA
:103830002CE088EA0707000E55F821805AF820008E
:10384000C2F30721D2B24FEA1C6956F8222054F87D
:10385000216003994240886887EA0001C3F307406A
:10386000714055F82000039E4140C3F307230C919B
:1038700054F82300F3685A40424082EA0802364B6B
:103880000D92140E5FFA8CF01D5D185C3469604077
:10389000CEF3072480EA05601C5D80EA0420C1F3B2
:1038A00007445FFA81F81C5D80EA044006905FFAE5
:1038B0008EF4039D1C5D6D694FEA116AC1F3072107
:1038C0006C4013F80950595C84EA056484EA0124C9
:1038D000039913F80850896913F80A80D7B24D404C
:1038E0000399DF5DC9694FEA1E664F40C2F30721A5
:1038F0009E5D595CC2F3074285EA06659A5C85EADB
:103900000125CCF30721CCF3074CCEF3074E84EA14
:1039100002425C5C13F80C1013F80EE0079287EA81
:10392000086785EA014587EA04230499089583EA34
:103930000E4308604A608D60CB6006A82021099381
:1039400005F0DAFF00200FB00AE000BFD01601201A
:10395000D00E0120D0120120D01A0120D00A01205F
:10396000BDE8F08F034EDFF818A0034C034D039F12
:103970001EE700BFD0160120D0120120D00E01207A
:10398000D00A01202DE9F04F446800680B688DB023
:103990004010049300F1FF39206893464A68434081
:1039A000CDE9043265688868C9686A40CDE90520B8
:1039B000A5686840CDE90601E568B9F1000F81EA24
:1039C000050104F110050791019540F3D98104F137
:1039D000300CE34FE34CE44EE44DCDF808B00093D7
:1039E000CB46CDF80C90DDF800A05CF8203C5FFAE7
:1039F0008AFE4FEA126857F82EE054F828808EEAC3
:103A0000030E8EEA080EC1F307284FEA106956F834
:103A1000288054F829908EEA080EC0F30748BBF1BD
:103A2000010B55F828808EEA080E5FFA82F8CDF86F
:103A300020E05CF81C3C57F8288088EA030888EAF4
:103A40000908CAF307294FEA116A56F8299054F871
:103A50002A3088EA0908C1F30749C9B255F8299004
:103A600057F821A088EA09085FFA80F9CDF8248088
:103A70005CF8181C57F8299089EA0109C2F307215C
:103A800089EA030956F82110009B89EA0109C3F36A
:103A900007414FEA136355F8211089EA0109CDF86F
:103AA000289054F823105CF8143CC0F30720C2F3AC
:103AB000074256F8200055F822208AEA030A8AEACB
:103AC000010A8AEA000080EA02005FFA8EF34FEAF8
:103AD000186257F8233054F822200B9083EA02032F
:103AE000C0F30722CEF3072A56F822105CF8102CF8
:103AF00083EA0203C9F3074283EA010355F822204F
:103B00004FEA196183EA02035FFA88F20093049393
:103B100054F8211057F8222082EA01025CF80C1CAC
:103B200082EA010256F82A1082EA0102C0F3074134
:103B30000CF1200C55F8211082EA01025FFA89F19C
:103B4000C9F3072957F821A056F8291005924FEA22
:103B50001069C0B254F829905CF8283C8AEA090A36
:103B600057F82090C8F307208AEA030A56F8200085
:103B70008AEA0000CEF3074A4FEA1E6E55F82AA0E3
:103B800054F82EE080EA0A0006905CF8243CC8F362
:103B9000074889EA0E0E55F828808EEA030E8EEA51
:103BA000010181EA080107917FF41DAFDDE902B947
:103BB000009B0096019E06EB491601965FFA83FC76
:103BC000009E57F82CE04FEA126C4FEA106854F848
:103BD0002CC054F828808EEA0C0EC1F3072C4FEA53
:103BE000116956F82CC0019E36688EEA060E8EEAE0
:103BF0000C0EC0F3074C009E55F82CC08EEA0C0E3C
:103C00005FFA82FCCDF820E057F82CC08CEA080C53
:103C1000C3F307284FEA1E6A56F82880019E76688B
:103C20008CEA060C8CEA080CC1F30748C9B255F8B7
:103C30002880009E8CEA080C5FFA80F8C0F3072009
:103C400057F8288057F8217054F8291056F82000AA
:103C5000CDF824C088EA0101C2F30728C2F3074265
:103C600056F8288055F82260019A92685140C3F3B3
:103C700007421B0E55F8222081EA0801514054F8F2
:103C800023200A917A40019FFB685A404240384BFA
:103C90005FFA8EF072401D5C0B924FEA1C603E464C
:103CA0001C5C386976694540C2F3072085EA0465E3
:103CB000185C85EA0025C1F307400C0E185C1C5DFA
:103CC00085EA00455FFA8CF05FFA81F9185C04958B
:103CD0005FFA82F8170EC2F30742704080EA046070
:103CE00013F8094013F80290019A13F808809269BA
:103CF00013F80A60DF5D5440019AD26988EA02082D
:103D0000CEF30722C1F307219A5C595C80EA0220B6
:103D1000CCF30722CEF3074ECCF3074C88EA0668B3
:103D20009E5C13F80C2088EA012884EA076413F8E3
:103D30000E10CBF8005084EA062383EA014380EAA0
:103D4000094088EA02420590CBF80400CBF808301D
:103D500004A8CBF80C202021069307920AE000BFAC
:103D6000D0050120D0F90020D0010120D0FD002095
:103D7000D009012005F0C0FD00200DB0BDE8F08F96
:103D8000024D0095024F034C034D17E7D00101206F
:103D9000D0050120D0F90020D0FD00208C46BCF1D8
:103DA000010F11461A4601D0FFF7ECBDFFF7E2BB49
:103DB00012F00F0F40F078812DE9F041074684B0F2
:103DC0001D46002940F08680002A7FD0DDE90A6385
:103DD00003F1100406EB020830687168B268F368FA
:103DE000EC46ACE80F00A4F1100231463846FFF76C
:103DF000C9FD297814F8103C14F80F2C4B4004F836
:103E0000103C697814F80E3C4A4004F80F2CA9784D
:103E100014F80D2C4B4004F80E3CE97814F80C3CD7
:103E20004A4004F80D2C297914F80B2C4B4004F867
:103E30000C3C697914F80A3C4A4004F80B2CA97927
:103E400014F8092C4B4004F80A3CE97914F8083CB2
:103E50004A4004F8092C297A14F8072C4B4004F83E
:103E6000083C697A14F8063C4A4004F8072CAA7A00
:103E7000534004F8063CE97A14F8052C14F8043C85
:103E800014F801EC4A4004F8052C297B14F8032CA3
:103E90004B4004F8043C697B14F8023C4A4004F8A7
:103EA000032CAA7B534004F8023CEB7BEC468EEAE1
:103EB000030EBCE80F001036464504F801EC04F18F
:103EC000100428606960AA60EB6085D1002004B00E
:103ED000BDE8F081002AF9D0DDE90A34012903F1B7
:103EE000100604EB020878D016F8103C29784B40F5
:103EF000237016F80F3C68784340637016F80E3C48
:103F000095F802C083EA0C03A37016F80DCCEB7889
:103F100083EA0C03E37016F80CCC2B7983EA0C03CC
:103F2000237116F80BCC6B7983EA0C03637116F8D6
:103F30000ACCAB7983EA0C03A37116F809CCEB79B0
:103F400083EA0C03E37116F808CC2B7A83EA0C039E
:103F5000237216F807CC6B7A83EA0C03637216F8A7
:103F600006CCAB7A83EA0C03A37216F805CCEB7A85
:103F700083EA0C03E37216F804CC2B7B83EA0C0370
:103F8000237316F803CC6B7B83EA0C03637316F878
:103F900002CCAB7B83EA0C03A37316F801CCEB7B5A
:103FA00083EA0C03E373224621463846FFF7EAFC16
:103FB000103454F8100C54F80C1C54F8082C54F815
:103FC000043CEB60444528606960AA6006F1100675
:103FD0008AD1002004B0BDE8F08116F8103C2978A1
:103FE0004B40237016F80F3C69784B40637016F80D
:103FF0000E3CA9784B40A37016F80D3CE9784B4075
:10400000E37016F80C3C29794B40237116F80B3CF1
:1040100069794B40637116F80A3CA9794B40A3714A
:1040200016F8093CE9794B40E37116F8083C297A07
:104030004B40237216F8073C697A4B40637216F8BE
:10404000063CA97A4B40A37216F8053CE97A4B402E
:10405000E37216F8043C297B4B40237316F8033CAB
:10406000697B4B40637316F8023CA97B4B40A373FA
:1040700016F8013CE97B4B40E37322462146384663
:10408000FFF778FA103454F8101C54F80C2C54F83C
:10409000083C54F8040CE860444506F11006296019
:1040A0006A60AB6099D111E76FF02100704700BFE3
:1040B0002DE9F04F93B0894603911946C14B1C9CE2
:1040C0001D9D00901746103A9A4200F246820DF16B
:1040D000180B5A4600F58C70FFF74CFA8046002802
:1040E0004BD14B463E09013E012B07F00F010EAAB2
:1040F000B14646D0CDE90407019102921CE00F9A27
:104100008AEA02036B60109B88EA0308119BC5F8DA
:1041100008805E400E9BEE605F40584659462F6017
:10412000FEF7F8FC103405F1100009F1FF33B9F186
:10413000000F6FD099460546019B1BB1039B53EAC4
:1041400009035DD0DDF82080A168099E62680098AF
:1041500081EA0801DDE9067A1091E168714082EA9E
:104160000A02119121680F92029A79400E9111462C
:10417000FFF708FC0028C2D08046404613B0BDE8D7
:10418000F08FCDE90407029101921DE00F9A8AEAAF
:1041900002036B60109B88EA0308119BC5F8088036
:1041A0005E400E9BEE605F40584659462F60FEF71A
:1041B000B1FC103405F1100009F1FF33B9F1000F23
:1041C00000F0F88099460546DDF82080A168099E38
:1041D0006268009881EA0801DDE9067A1091E168D9
:1041E000714082EA0A02119121680F92019A794086
:1041F0000E911146FFF7BEF90028C7D08046BCE7F4
:104200009BE80F000AAE86E80F0059465846FEF7B5
:1042100081FC97E70199029ADDE904870029ACD077
:10422000039B0BB90DF1280B4B1E022B40F2CC80E7
:104230006B1CC31A022B40F2C780E31C1B1A062B0F
:1042400040F2C2802B6803602668DBF800304FEA3A
:10425000910C7340BCF1010F0E9311D06B68436059
:104260006668DBF80430BCF1030F83EA06030F93A2
:1042700006D1AB688360A668DBF808307340109302
:1042800007F00C03994200F04E81EE5CC6541BF817
:104290000370E65C7E4003F148076F4407F8106C3A
:1042A0005E1CB14217D9AF5D87551BF806C0A75DEC
:1042B000483602336E4487EA0C07994206F8107CB0
:1042C00009D9EE5CC654E05C1BF8034048336B44EC
:1042D000604003F8100CC1F10F000228C1F1100377
:1042E00025D96C585BF801006040505098086F1851
:1042F0000BEB01065418012807F1040C06F1040E1B
:1043000004F104090ED0DCF800C0DEF800E0032858
:104310008CEA0E0CC9F800C040F01A81BF68B6687C
:104320007E40A660B3EB800F01EB800121D01BF82B
:1043300001006B5C434001F1480068440F2900F81C
:10434000103C01F1010314D0E85C1BF8034001F1BB
:1043500049036B4460400E2903F8100C01F102037D
:1043600007D0E95C1BF8030048336B44414003F875
:10437000101C039B0098012B114600F0D180FFF721
:1043800001FB00287FF4F8AE0E9BDBF800205A40BA
:104390002A600F9BDBF804205A406A60DBE90221A7
:1043A000109B5A40119BAA604B404046EB6013B0F3
:1043B000BDE8F08F0299019ADDE9048700297FF4B6
:1043C00033AFDAE6F0FFFF002B78037023789BF819
:1043D000006017F00E0F83EA06038DF838303FF4C3
:1043E0007AAF6B78437063789BF80160022983EAA7
:1043F00006038DF8393040F2AD80AB788370A37836
:104400009BF8026017F00C0F83EA06038DF83A3030
:104410003FF461AFEB78C370E3789BF80360042945
:1044200083EA06038DF83B3040F294802B790371C8
:1044300023799BF80460052983EA06038DF83C3054
:1044400074D06B79437163799BF80560062983EA20
:1044500006038DF83D3000F08380AB798371A3793A
:104460009BF8066073408DF83E303B077FF533AF15
:10447000EB79C371E3799BF80760082983EA0603A7
:104480008DF83F3066D92B7A0372237A9BF8086047
:10449000092983EA06038DF840306FD06B7A4372A6
:1044A000637A9BF809600A2983EA06038DF8413094
:1044B00068D0AB7A8372A37A9BF80A600B2983EAEF
:1044C00006038DF842305BD0EB7AC372E37A9BF837
:1044D0000B600C2983EA06038DF8433042D02B7B16
:1044E0000373237B9BF80C600D2983EA06038DF888
:1044F00044303FF41CAF6B7B4373637B9BF80D60D0
:104500000F2983EA06038DF845307FF410AFAB7BAB
:104510008373A37B9BF80E0043408DF8463006E77B
:10452000FFF728F82DE7C1F11003DAE60B235BF85B
:10453000014068586F1860400BEB0106541850504A
:1045400007F1040C980806F1040E04F10409DAE6F8
:104550000220E7E6C1F11003E9E76FF021080CE65D
:104560000A23E4E704235BF801406858604001F146
:1045700048046C4444F8100C0120D3E60723F2E70A
:104580000523F0E70623EEE72DE9F0471C68089DB8
:104590000F2CDDE909674DD89946824629BBFAB14F
:1045A00006EB02082A46294650466CB9FEF7E2FFA0
:1045B00016F8012B2B78B04583EA020307F8013B7C
:1045C0004FF001042A7033D02B5D16F8012B611CCB
:1045D0005340464507F8013B2A5501F00F04E1D14D
:1045E000C9F800400020BDE8F08706EB0208002A69
:1045F000F6D02A46294650466CB9FEF7BBFF16F89E
:10460000013B2A78464583EA020307F8013B4FF055
:1046100001042B700CD02A5D16F8011B631C4A4064
:10462000464507F8012B2A5503F00F04E1D1D7E7DF
:104630000124D5E76FF02000D5E700BF2DE9F04752
:104640001468089D099E0F2C21D8904689B1074611
:104650009A4605EB01098CB11AF804C015F8010B54
:1046600001348CEA000CA94506F801CB04F00F04D4
:10467000F1D1C8F800400020BDE8F087524651460D
:104680003846FEF777FF0028E6D0BDE8F0876FF0E8
:104690002000F1E72DE9F84F1468DDF828B00F2C61
:1046A000DDE90B677BD8904689B181461D4606EB54
:1046B000010A8CB11BF804C016F8013B01348CEAE6
:1046C000030C564507F801CB04F00F04F1D1C8F8EC
:1046D00000400020BDE8F88F5A4629464846FEF7BC
:1046E00049FFEB7B0133DBB2EB73002BE2D1AB7BF9
:1046F0000133DBB2AB73002BDCD16B7B0133DBB25C
:104700006B73002BD6D12B7B0133DBB22B73002BC9
:10471000D0D1EB7A0133DBB2EB72002BCAD1AB7A8A
:104720000133DBB2AB72002BC4D16B7A0133DBB245
:104730006B72002BBED12B7A0133DBB22B72002BB4
:10474000B8D1EB790133DBB2EB71002BB2D1AB798D
:104750000133DBB2AB71002BACD16B790133DBB22F
:104760006B71002BA6D12B790133DBB22B71002B9F
:10477000A0D1EB780133DBB2EB70002B9AD1AB7890
:104780000133DBB2AB70002B94D16B780133DBB219
:104790006B70002B8ED12B7801332B708AE76FF072
:1047A000200097E74FF4847200211BF053BA00BF3A
:1047B00018B14FF4847105F09FB87047002370B5AD
:1047C000C0E9003300F1070C0C46154600F1080162
:1047D000E6460EF8013F0133B3F5807FF9D14FF083
:1047E000000E00F20716734675458CBF04EB0E00F1
:1047F00020461CF8012F007813440344DBB288BF25
:104800000EF1010EC85C8CF8000098BF4FF0010E4D
:10481000B445CA54E8D170BD70B5D0E90054F1B1C7
:10482000561800F1080C02F1FF3E591E013E0135F9
:10483000EDB21CF805201444E4B21CF804300CF866
:10484000053013440CF80420DBB21EF8012F1CF8CD
:104850000330764583EA020301F8013FE7D1C0E95E
:104860000054002070BD00BF41F2480200211BF03F
:10487000F1B900BF18B141F2480105F03DB87047E9
